{
  "contractName": "VotingSystem",
  "abi": [
    {
      "inputs": [],
      "name": "electionCount",
      "outputs": [
        {
          "internalType": "uint256",
          "name": "",
          "type": "uint256"
        }
      ],
      "stateMutability": "view",
      "type": "function",
      "constant": true
    },
    {
      "inputs": [
        {
          "internalType": "uint256",
          "name": "",
          "type": "uint256"
        }
      ],
      "name": "elections",
      "outputs": [
        {
          "internalType": "uint256",
          "name": "id",
          "type": "uint256"
        },
        {
          "internalType": "string",
          "name": "name",
          "type": "string"
        },
        {
          "internalType": "uint256",
          "name": "candidateCount",
          "type": "uint256"
        },
        {
          "internalType": "bool",
          "name": "active",
          "type": "bool"
        }
      ],
      "stateMutability": "view",
      "type": "function",
      "constant": true
    },
    {
      "inputs": [
        {
          "internalType": "string",
          "name": "_name",
          "type": "string"
        }
      ],
      "name": "createElection",
      "outputs": [],
      "stateMutability": "nonpayable",
      "type": "function"
    },
    {
      "inputs": [
        {
          "internalType": "uint256",
          "name": "_electionId",
          "type": "uint256"
        },
        {
          "internalType": "string",
          "name": "_name",
          "type": "string"
        }
      ],
      "name": "addCandidate",
      "outputs": [],
      "stateMutability": "nonpayable",
      "type": "function"
    },
    {
      "inputs": [
        {
          "internalType": "uint256",
          "name": "_electionId",
          "type": "uint256"
        },
        {
          "internalType": "uint256",
          "name": "_candidateId",
          "type": "uint256"
        }
      ],
      "name": "vote",
      "outputs": [],
      "stateMutability": "nonpayable",
      "type": "function"
    },
    {
      "inputs": [
        {
          "internalType": "uint256",
          "name": "_electionId",
          "type": "uint256"
        }
      ],
      "name": "endElection",
      "outputs": [],
      "stateMutability": "nonpayable",
      "type": "function"
    },
    {
      "inputs": [
        {
          "internalType": "uint256",
          "name": "_electionId",
          "type": "uint256"
        }
      ],
      "name": "getResults",
      "outputs": [
        {
          "internalType": "string",
          "name": "",
          "type": "string"
        },
        {
          "internalType": "uint256",
          "name": "",
          "type": "uint256"
        }
      ],
      "stateMutability": "view",
      "type": "function",
      "constant": true
    }
  ],
  "bytecode": "0x608060405234801561001057600080fd5b50610c63806100206000396000f3fe608060405234801561001057600080fd5b506004361061007d5760003560e01c806381a60c0d1161005b57806381a60c0d146100ed578063997d28301461011e5780639c98bcbb1461013c578063b384abef146101585761007d565b806315cf4a5f146100825780631750a3d01461009e5780635e6fef01146100ba575b600080fd5b61009c60048036038101906100979190610780565b610174565b005b6100b860048036038101906100b391906107ea565b610209565b005b6100d460048036038101906100cf91906107c1565b6102ab565b6040516100e494939291906109dc565b60405180910390f35b610107600480360381019061010291906107c1565b610370565b604051610115929190610951565b60405180910390f35b6101266104a0565b60405161013391906109c1565b60405180910390f35b610156600480360381019061015191906107c1565b6104a6565b005b610172600480360381019061016d919061083e565b6104dd565b005b6001600081548092919061018790610b2f565b919050555060015460008060015481526020019081526020016000206000018190555080600080600154815260200190815260200160002060010190805190602001906101d5929190610660565b506001600080600154815260200190815260200160002060050160006101000a81548160ff02191690831515021790555050565b6000806000848152602001908152602001600020905080600301600081548092919061023490610b2f565b9190505550604051806060016040528082600301548152602001838152602001600081525081600201600083600301548152602001908152602001600020600082015181600001556020820151816001019080519060200190610298929190610660565b5060408201518160020155905050505050565b60006020528060005260406000206000915090508060000154908060010180546102d490610afd565b80601f016020809104026020016040519081016040528092919081815260200182805461030090610afd565b801561034d5780601f106103225761010080835404028352916020019161034d565b820191906000526020600020905b81548152906001019060200180831161033057829003601f168201915b5050505050908060030154908060050160009054906101000a900460ff16905084565b60606000806000808581526020019081526020016000209050600060606000600190505b83600301548111610491578284600201600083815260200190815260200160002060020154111561047e5783600201600082815260200190815260200160002060020154925083600201600082815260200190815260200160002060010180546103fd90610afd565b80601f016020809104026020016040519081016040528092919081815260200182805461042990610afd565b80156104765780601f1061044b57610100808354040283529160200191610476565b820191906000526020600020905b81548152906001019060200180831161045957829003601f168201915b505050505091505b808061048990610b2f565b915050610394565b50808294509450505050915091565b60015481565b6000806000838152602001908152602001600020905060008160050160006101000a81548160ff0219169083151502179055505050565b600080600084815260200190815260200160002090508060050160009054906101000a900460ff16610544576040517f08c379a000000000000000000000000000000000000000000000000000000000815260040161053b90610981565b60405180910390fd5b8060040160003373ffffffffffffffffffffffffffffffffffffffff1673ffffffffffffffffffffffffffffffffffffffff16815260200190815260200160002060009054906101000a900460ff16156105d3576040517f08c379a00000000000000000000000000000000000000000000000000000000081526004016105ca906109a1565b60405180910390fd5b60018160040160003373ffffffffffffffffffffffffffffffffffffffff1673ffffffffffffffffffffffffffffffffffffffff16815260200190815260200160002060006101000a81548160ff021916908315150217905550806002016000838152602001908152602001600020600201600081548092919061065690610b2f565b9190505550505050565b82805461066c90610afd565b90600052602060002090601f01602090048101928261068e57600085556106d5565b82601f106106a757805160ff19168380011785556106d5565b828001600101855582156106d5579182015b828111156106d45782518255916020019190600101906106b9565b5b5090506106e291906106e6565b5090565b5b808211156106ff5760008160009055506001016106e7565b5090565b600061071661071184610a59565b610a28565b90508281526020810184848401111561072e57600080fd5b610739848285610abb565b509392505050565b600082601f83011261075257600080fd5b8135610762848260208601610703565b91505092915050565b60008135905061077a81610c16565b92915050565b60006020828403121561079257600080fd5b600082013567ffffffffffffffff8111156107ac57600080fd5b6107b884828501610741565b91505092915050565b6000602082840312156107d357600080fd5b60006107e18482850161076b565b91505092915050565b600080604083850312156107fd57600080fd5b600061080b8582860161076b565b925050602083013567ffffffffffffffff81111561082857600080fd5b61083485828601610741565b9150509250929050565b6000806040838503121561085157600080fd5b600061085f8582860161076b565b92505060206108708582860161076b565b9150509250929050565b61088381610aa5565b82525050565b600061089482610a89565b61089e8185610a94565b93506108ae818560208601610aca565b6108b781610c05565b840191505092915050565b60006108cf601683610a94565b91507f456c656374696f6e206973206e6f7420616374697665000000000000000000006000830152602082019050919050565b600061090f601683610a94565b91507f596f75206861766520616c726561647920766f746564000000000000000000006000830152602082019050919050565b61094b81610ab1565b82525050565b6000604082019050818103600083015261096b8185610889565b905061097a6020830184610942565b9392505050565b6000602082019050818103600083015261099a816108c2565b9050919050565b600060208201905081810360008301526109ba81610902565b9050919050565b60006020820190506109d66000830184610942565b92915050565b60006080820190506109f16000830187610942565b8181036020830152610a038186610889565b9050610a126040830185610942565b610a1f606083018461087a565b95945050505050565b6000604051905081810181811067ffffffffffffffff82111715610a4f57610a4e610bd6565b5b8060405250919050565b600067ffffffffffffffff821115610a7457610a73610bd6565b5b601f19601f8301169050602081019050919050565b600081519050919050565b600082825260208201905092915050565b60008115159050919050565b6000819050919050565b82818337600083830152505050565b60005b83811015610ae8578082015181840152602081019050610acd565b83811115610af7576000848401525b50505050565b60006002820490506001821680610b1557607f821691505b60208210811415610b2957610b28610ba7565b5b50919050565b6000610b3a82610ab1565b91507fffffffffffffffffffffffffffffffffffffffffffffffffffffffffffffffff821415610b6d57610b6c610b78565b5b600182019050919050565b7f4e487b7100000000000000000000000000000000000000000000000000000000600052601160045260246000fd5b7f4e487b7100000000000000000000000000000000000000000000000000000000600052602260045260246000fd5b7f4e487b7100000000000000000000000000000000000000000000000000000000600052604160045260246000fd5b6000601f19601f8301169050919050565b610c1f81610ab1565b8114610c2a57600080fd5b5056fea26469706673582212201981799cb34ab3698dbcf4423081d4828635e729733f6892bd64e5a502fadc0364736f6c63430008000033",
  "immutableReferences": {},
  "source": "// SPDX-License-Identifier: MIT\r\npragma solidity ^0.8.0;\r\n\r\ncontract VotingSystem {\r\n    struct Candidate {\r\n        uint id;\r\n        string name;\r\n        uint voteCount;\r\n    }\r\n\r\n    struct Election {\r\n        uint id;\r\n        string name;\r\n        mapping(uint => Candidate) candidates;\r\n        uint candidateCount;\r\n        mapping(address => bool) voters;\r\n        bool active;\r\n    }\r\n\r\n    mapping(uint => Election) public elections;\r\n    uint public electionCount;\r\n\r\n    function createElection(string memory _name) public {\r\n        electionCount++;\r\n        elections[electionCount].id = electionCount;\r\n        elections[electionCount].name = _name;\r\n        elections[electionCount].active = true;\r\n    }\r\n\r\n    function addCandidate(uint _electionId, string memory _name) public {\r\n        Election storage election = elections[_electionId];\r\n        election.candidateCount++;\r\n        election.candidates[election.candidateCount] = Candidate(election.candidateCount, _name, 0);\r\n    }\r\n\r\n    function vote(uint _electionId, uint _candidateId) public {\r\n        Election storage election = elections[_electionId];\r\n        require(election.active, \"Election is not active\");\r\n        require(!election.voters[msg.sender], \"You have already voted\");\r\n\r\n        election.voters[msg.sender] = true;\r\n        election.candidates[_candidateId].voteCount++;\r\n    }\r\n\r\n    function endElection(uint _electionId) public {\r\n        Election storage election = elections[_electionId];\r\n        election.active = false;\r\n    }\r\n\r\n    function getResults(uint _electionId) public view returns (string memory, uint) {\r\n        Election storage election = elections[_electionId];\r\n        uint maxVotes = 0;\r\n        string memory winner;\r\n\r\n        for (uint i = 1; i <= election.candidateCount; i++) {\r\n            if (election.candidates[i].voteCount > maxVotes) {\r\n                maxVotes = election.candidates[i].voteCount;\r\n                winner = election.candidates[i].name;\r\n            }\r\n        }\r\n\r\n        return (winner, maxVotes);\r\n    }\r\n}\r\n",
  "sourcePath": "C:\\Users\\user\\OneDrive\\Desktop\\New folder\\decentralized_voting_system\\backend\\contracts\\VotingSystem.sol",
  "compiler": {
    "name": "solc",
    "version": "0.8.0+commit.c7dfd78e.Emscripten.clang"
  },
  "schemaVersion": "3.4.16",
  "updatedAt": "2024-07-31T15:26:21.843Z",
  "networkType": "ethereum",
  "devdoc": {
    "kind": "dev",
    "methods": {},
    "version": 1
  },
  "userdoc": {
    "kind": "user",
    "methods": {},
    "version": 1
  }
}