{
  "contractName": "VotingSystem",
  "abi": [
    {
      "inputs": [],
      "name": "electionCount",
      "outputs": [
        {
          "internalType": "uint256",
          "name": "",
          "type": "uint256"
        }
      ],
      "stateMutability": "view",
      "type": "function",
      "constant": true
    },
    {
      "inputs": [
        {
          "internalType": "uint256",
          "name": "",
          "type": "uint256"
        }
      ],
      "name": "elections",
      "outputs": [
        {
          "internalType": "uint256",
          "name": "id",
          "type": "uint256"
        },
        {
          "internalType": "string",
          "name": "name",
          "type": "string"
        },
        {
          "internalType": "uint256",
          "name": "candidateCount",
          "type": "uint256"
        },
        {
          "internalType": "bool",
          "name": "active",
          "type": "bool"
        }
      ],
      "stateMutability": "view",
      "type": "function",
      "constant": true
    },
    {
      "inputs": [
        {
          "internalType": "string",
          "name": "_name",
          "type": "string"
        },
        {
          "internalType": "string[]",
          "name": "_candidates",
          "type": "string[]"
        }
      ],
      "name": "createElection",
      "outputs": [],
      "stateMutability": "nonpayable",
      "type": "function"
    },
    {
      "inputs": [
        {
          "internalType": "uint256",
          "name": "_electionId",
          "type": "uint256"
        },
        {
          "internalType": "uint256",
          "name": "_candidateId",
          "type": "uint256"
        }
      ],
      "name": "vote",
      "outputs": [],
      "stateMutability": "nonpayable",
      "type": "function"
    },
    {
      "inputs": [
        {
          "internalType": "uint256",
          "name": "_electionId",
          "type": "uint256"
        }
      ],
      "name": "endElection",
      "outputs": [],
      "stateMutability": "nonpayable",
      "type": "function"
    },
    {
      "inputs": [
        {
          "internalType": "uint256",
          "name": "_electionId",
          "type": "uint256"
        },
        {
          "internalType": "uint256",
          "name": "_candidateId",
          "type": "uint256"
        }
      ],
      "name": "getCandidate",
      "outputs": [
        {
          "internalType": "uint256",
          "name": "",
          "type": "uint256"
        },
        {
          "internalType": "string",
          "name": "",
          "type": "string"
        },
        {
          "internalType": "uint256",
          "name": "",
          "type": "uint256"
        }
      ],
      "stateMutability": "view",
      "type": "function",
      "constant": true
    },
    {
      "inputs": [
        {
          "internalType": "uint256",
          "name": "_electionId",
          "type": "uint256"
        }
      ],
      "name": "getCandidates",
      "outputs": [
        {
          "components": [
            {
              "internalType": "uint256",
              "name": "id",
              "type": "uint256"
            },
            {
              "internalType": "string",
              "name": "name",
              "type": "string"
            },
            {
              "internalType": "uint256",
              "name": "voteCount",
              "type": "uint256"
            }
          ],
          "internalType": "struct VotingSystem.Candidate[]",
          "name": "",
          "type": "tuple[]"
        }
      ],
      "stateMutability": "view",
      "type": "function",
      "constant": true
    },
    {
      "inputs": [
        {
          "internalType": "uint256",
          "name": "_electionId",
          "type": "uint256"
        },
        {
          "internalType": "address",
          "name": "_voter",
          "type": "address"
        }
      ],
      "name": "hasVoted",
      "outputs": [
        {
          "internalType": "bool",
          "name": "",
          "type": "bool"
        }
      ],
      "stateMutability": "view",
      "type": "function",
      "constant": true
    }
  ],
  "bytecode": "0x608060405234801561001057600080fd5b50611225806100206000396000f3fe608060405234801561001057600080fd5b50600436106100885760003560e01c80635e6fef011161005b5780635e6fef011461013b578063997d28301461016e5780639c98bcbb1461018c578063b384abef146101a857610088565b8063349813b21461008d5780633e39a7a5146100a957806343859632146100d95780634bd4644814610109575b600080fd5b6100a760048036038101906100a29190610ad0565b6101c4565b005b6100c360048036038101906100be9190610b3c565b6102a5565b6040516100d09190610dd5565b60405180910390f35b6100f360048036038101906100ee9190610b65565b610486565b6040516101009190610df7565b60405180910390f35b610123600480360381019061011e9190610ba1565b6104f1565b60405161013293929190610e6d565b60405180910390f35b61015560048036038101906101509190610b3c565b6105c9565b6040516101659493929190610eab565b60405180910390f35b61017661068e565b6040516101839190610e52565b60405180910390f35b6101a660048036038101906101a19190610b3c565b610694565b005b6101c260048036038101906101bd9190610ba1565b6106cc565b005b6000808154809291906101d6906110da565b91905055506000600160008054815260200190815260200160002090506000548160000181905550828160010190805190602001906102169291906108f3565b5060018160050160006101000a81548160ff02191690831515021790555060005b825181101561029f5761028c60005484838151811061027f577f4e487b7100000000000000000000000000000000000000000000000000000000600052603260045260246000fd5b6020026020010151610850565b8080610297906110da565b915050610237565b50505050565b606060006001600084815260200190815260200160002090506000816003015467ffffffffffffffff811115610304577f4e487b7100000000000000000000000000000000000000000000000000000000600052604160045260246000fd5b60405190808252806020026020018201604052801561033d57816020015b61032a610979565b8152602001906001900390816103225790505b5090506000600190505b8260030154811161047b578260020160008281526020019081526020016000206040518060600160405290816000820154815260200160018201805461038c906110a8565b80601f01602080910402602001604051908101604052809291908181526020018280546103b8906110a8565b80156104055780601f106103da57610100808354040283529160200191610405565b820191906000526020600020905b8154815290600101906020018083116103e857829003601f168201915b50505050508152602001600282015481525050826001836104269190610fea565b8151811061045d577f4e487b7100000000000000000000000000000000000000000000000000000000600052603260045260246000fd5b60200260200101819052508080610473906110da565b915050610347565b508092505050919050565b60006001600084815260200190815260200160002060040160008373ffffffffffffffffffffffffffffffffffffffff1673ffffffffffffffffffffffffffffffffffffffff16815260200190815260200160002060009054906101000a900460ff16905092915050565b600060606000806001600087815260200190815260200160002060020160008681526020019081526020016000209050806000015481600101826002015481805461053b906110a8565b80601f0160208091040260200160405190810160405280929190818152602001828054610567906110a8565b80156105b45780601f10610589576101008083540402835291602001916105b4565b820191906000526020600020905b81548152906001019060200180831161059757829003601f168201915b50505050509150935093509350509250925092565b60016020528060005260406000206000915090508060000154908060010180546105f2906110a8565b80601f016020809104026020016040519081016040528092919081815260200182805461061e906110a8565b801561066b5780601f106106405761010080835404028352916020019161066b565b820191906000526020600020905b81548152906001019060200180831161064e57829003601f168201915b5050505050908060030154908060050160009054906101000a900460ff16905084565b60005481565b600060016000838152602001908152602001600020905060008160050160006101000a81548160ff0219169083151502179055505050565b60006001600084815260200190815260200160002090508060050160009054906101000a900460ff16610734576040517f08c379a000000000000000000000000000000000000000000000000000000000815260040161072b90610e12565b60405180910390fd5b8060040160003373ffffffffffffffffffffffffffffffffffffffff1673ffffffffffffffffffffffffffffffffffffffff16815260200190815260200160002060009054906101000a900460ff16156107c3576040517f08c379a00000000000000000000000000000000000000000000000000000000081526004016107ba90610e32565b60405180910390fd5b60018160040160003373ffffffffffffffffffffffffffffffffffffffff1673ffffffffffffffffffffffffffffffffffffffff16815260200190815260200160002060006101000a81548160ff0219169083151502179055508060020160008381526020019081526020016000206002016000815480929190610846906110da565b9190505550505050565b600060016000848152602001908152602001600020905080600301600081548092919061087c906110da565b91905055506040518060600160405280826003015481526020018381526020016000815250816002016000836003015481526020019081526020016000206000820151816000015560208201518160010190805190602001906108e09291906108f3565b5060408201518160020155905050505050565b8280546108ff906110a8565b90600052602060002090601f0160209004810192826109215760008555610968565b82601f1061093a57805160ff1916838001178555610968565b82800160010185558215610968579182015b8281111561096757825182559160200191906001019061094c565b5b509050610975919061099a565b5090565b60405180606001604052806000815260200160608152602001600081525090565b5b808211156109b357600081600090555060010161099b565b5090565b60006109ca6109c584610f28565b610ef7565b9050808382526020820190508260005b85811015610a0a57813585016109f08882610a91565b8452602084019350602083019250506001810190506109da565b5050509392505050565b6000610a27610a2284610f54565b610ef7565b905082815260208101848484011115610a3f57600080fd5b610a4a848285611066565b509392505050565b600081359050610a61816111c1565b92915050565b600082601f830112610a7857600080fd5b8135610a888482602086016109b7565b91505092915050565b600082601f830112610aa257600080fd5b8135610ab2848260208601610a14565b91505092915050565b600081359050610aca816111d8565b92915050565b60008060408385031215610ae357600080fd5b600083013567ffffffffffffffff811115610afd57600080fd5b610b0985828601610a91565b925050602083013567ffffffffffffffff811115610b2657600080fd5b610b3285828601610a67565b9150509250929050565b600060208284031215610b4e57600080fd5b6000610b5c84828501610abb565b91505092915050565b60008060408385031215610b7857600080fd5b6000610b8685828601610abb565b9250506020610b9785828601610a52565b9150509250929050565b60008060408385031215610bb457600080fd5b6000610bc285828601610abb565b9250506020610bd385828601610abb565b9150509250929050565b6000610be98383610d67565b905092915050565b6000610bfc82610f94565b610c068185610fb7565b935083602082028501610c1885610f84565b8060005b85811015610c545784840389528151610c358582610bdd565b9450610c4083610faa565b925060208a01995050600181019050610c1c565b50829750879550505050505092915050565b610c6f81611030565b82525050565b6000610c8082610f9f565b610c8a8185610fc8565b9350610c9a818560208601611075565b610ca3816111b0565b840191505092915050565b6000610cb982610f9f565b610cc38185610fd9565b9350610cd3818560208601611075565b610cdc816111b0565b840191505092915050565b6000610cf4601683610fd9565b91507f456c656374696f6e206973206e6f7420616374697665000000000000000000006000830152602082019050919050565b6000610d34601683610fd9565b91507f596f75206861766520616c726561647920766f746564000000000000000000006000830152602082019050919050565b6000606083016000830151610d7f6000860182610db7565b5060208301518482036020860152610d978282610c75565b9150506040830151610dac6040860182610db7565b508091505092915050565b610dc08161105c565b82525050565b610dcf8161105c565b82525050565b60006020820190508181036000830152610def8184610bf1565b905092915050565b6000602082019050610e0c6000830184610c66565b92915050565b60006020820190508181036000830152610e2b81610ce7565b9050919050565b60006020820190508181036000830152610e4b81610d27565b9050919050565b6000602082019050610e676000830184610dc6565b92915050565b6000606082019050610e826000830186610dc6565b8181036020830152610e948185610cae565b9050610ea36040830184610dc6565b949350505050565b6000608082019050610ec06000830187610dc6565b8181036020830152610ed28186610cae565b9050610ee16040830185610dc6565b610eee6060830184610c66565b95945050505050565b6000604051905081810181811067ffffffffffffffff82111715610f1e57610f1d611181565b5b8060405250919050565b600067ffffffffffffffff821115610f4357610f42611181565b5b602082029050602081019050919050565b600067ffffffffffffffff821115610f6f57610f6e611181565b5b601f19601f8301169050602081019050919050565b6000819050602082019050919050565b600081519050919050565b600081519050919050565b6000602082019050919050565b600082825260208201905092915050565b600082825260208201905092915050565b600082825260208201905092915050565b6000610ff58261105c565b91506110008361105c565b92508282101561101357611012611123565b5b828203905092915050565b60006110298261103c565b9050919050565b60008115159050919050565b600073ffffffffffffffffffffffffffffffffffffffff82169050919050565b6000819050919050565b82818337600083830152505050565b60005b83811015611093578082015181840152602081019050611078565b838111156110a2576000848401525b50505050565b600060028204905060018216806110c057607f821691505b602082108114156110d4576110d3611152565b5b50919050565b60006110e58261105c565b91507fffffffffffffffffffffffffffffffffffffffffffffffffffffffffffffffff82141561111857611117611123565b5b600182019050919050565b7f4e487b7100000000000000000000000000000000000000000000000000000000600052601160045260246000fd5b7f4e487b7100000000000000000000000000000000000000000000000000000000600052602260045260246000fd5b7f4e487b7100000000000000000000000000000000000000000000000000000000600052604160045260246000fd5b6000601f19601f8301169050919050565b6111ca8161101e565b81146111d557600080fd5b50565b6111e18161105c565b81146111ec57600080fd5b5056fea26469706673582212204df7b6cb3e72050d52cf9c2582313013ca2dbfdfa56ce912206f7dd37dbd54a864736f6c63430008000033",
  "immutableReferences": {},
  "source": "// SPDX-License-Identifier: MIT\r\npragma solidity ^0.8.0;\r\n\r\ncontract VotingSystem {\r\n    struct Candidate {\r\n        uint id;\r\n        string name;\r\n        uint voteCount;\r\n    }\r\n\r\n    struct Election {\r\n        uint id;\r\n        string name;\r\n        mapping(uint => Candidate) candidates;\r\n        uint candidateCount;\r\n        mapping(address => bool) voters;\r\n        bool active;\r\n    }\r\n\r\n    uint public electionCount;\r\n    mapping(uint => Election) public elections;\r\n\r\n    function createElection(string memory _name, string[] memory _candidates) public {\r\n        electionCount++;\r\n        Election storage election = elections[electionCount];\r\n        election.id = electionCount;\r\n        election.name = _name;\r\n        election.active = true;\r\n\r\n        for (uint i = 0; i < _candidates.length; i++) {\r\n            addCandidate(electionCount, _candidates[i]);\r\n        }\r\n    }\r\n\r\n    function addCandidate(uint _electionId, string memory _name) internal {\r\n        Election storage election = elections[_electionId];\r\n        election.candidateCount++;\r\n        election.candidates[election.candidateCount] = Candidate(election.candidateCount, _name, 0);\r\n    }\r\n\r\n    function vote(uint _electionId, uint _candidateId) public {\r\n        Election storage election = elections[_electionId];\r\n        require(election.active, \"Election is not active\");\r\n        require(!election.voters[msg.sender], \"You have already voted\");\r\n\r\n        election.voters[msg.sender] = true;\r\n        election.candidates[_candidateId].voteCount++;\r\n    }\r\n\r\n    function endElection(uint _electionId) public {\r\n        Election storage election = elections[_electionId];\r\n        election.active = false;\r\n    }\r\n\r\n    function getCandidate(uint _electionId, uint _candidateId) public view returns (uint, string memory, uint) {\r\n        Candidate storage candidate = elections[_electionId].candidates[_candidateId];\r\n        return (candidate.id, candidate.name, candidate.voteCount);\r\n    }\r\n\r\n    function getCandidates(uint _electionId) public view returns (Candidate[] memory) {\r\n        Election storage election = elections[_electionId];\r\n        Candidate[] memory candidates = new Candidate[](election.candidateCount);\r\n\r\n        for (uint i = 1; i <= election.candidateCount; i++) {\r\n            candidates[i - 1] = election.candidates[i];\r\n        }\r\n\r\n        return candidates;\r\n    }\r\n\r\n    function hasVoted(uint _electionId, address _voter) public view returns (bool) {\r\n        return elections[_electionId].voters[_voter];\r\n    }\r\n}\r\n",
  "sourcePath": "C:\\Users\\user\\OneDrive\\Desktop\\New folder\\decentralized_voting_system\\backend\\contracts\\VotingSystem.sol",
  "compiler": {
    "name": "solc",
    "version": "0.8.0+commit.c7dfd78e.Emscripten.clang"
  },
  "schemaVersion": "3.4.16",
  "updatedAt": "2024-08-01T15:38:08.802Z",
  "networkType": "ethereum",
  "devdoc": {
    "kind": "dev",
    "methods": {},
    "version": 1
  },
  "userdoc": {
    "kind": "user",
    "methods": {},
    "version": 1
  }
}