{
  "contractName": "VotingSystem",
  "abi": [
    {
      "inputs": [],
      "name": "electionCount",
      "outputs": [
        {
          "internalType": "uint256",
          "name": "",
          "type": "uint256"
        }
      ],
      "stateMutability": "view",
      "type": "function",
      "constant": true
    },
    {
      "inputs": [
        {
          "internalType": "uint256",
          "name": "",
          "type": "uint256"
        }
      ],
      "name": "elections",
      "outputs": [
        {
          "internalType": "uint256",
          "name": "id",
          "type": "uint256"
        },
        {
          "internalType": "string",
          "name": "name",
          "type": "string"
        },
        {
          "internalType": "uint256",
          "name": "candidateCount",
          "type": "uint256"
        },
        {
          "internalType": "bool",
          "name": "active",
          "type": "bool"
        }
      ],
      "stateMutability": "view",
      "type": "function",
      "constant": true
    },
    {
      "inputs": [
        {
          "internalType": "string",
          "name": "_name",
          "type": "string"
        },
        {
          "internalType": "string[]",
          "name": "_candidates",
          "type": "string[]"
        }
      ],
      "name": "createElection",
      "outputs": [],
      "stateMutability": "nonpayable",
      "type": "function"
    },
    {
      "inputs": [
        {
          "internalType": "uint256",
          "name": "_electionId",
          "type": "uint256"
        },
        {
          "internalType": "uint256",
          "name": "_candidateId",
          "type": "uint256"
        }
      ],
      "name": "vote",
      "outputs": [],
      "stateMutability": "nonpayable",
      "type": "function"
    },
    {
      "inputs": [
        {
          "internalType": "uint256",
          "name": "_electionId",
          "type": "uint256"
        }
      ],
      "name": "endElection",
      "outputs": [],
      "stateMutability": "nonpayable",
      "type": "function"
    },
    {
      "inputs": [
        {
          "internalType": "uint256",
          "name": "_electionId",
          "type": "uint256"
        },
        {
          "internalType": "uint256",
          "name": "_candidateId",
          "type": "uint256"
        }
      ],
      "name": "getCandidate",
      "outputs": [
        {
          "internalType": "uint256",
          "name": "",
          "type": "uint256"
        },
        {
          "internalType": "string",
          "name": "",
          "type": "string"
        },
        {
          "internalType": "uint256",
          "name": "",
          "type": "uint256"
        }
      ],
      "stateMutability": "view",
      "type": "function",
      "constant": true
    },
    {
      "inputs": [
        {
          "internalType": "uint256",
          "name": "_electionId",
          "type": "uint256"
        }
      ],
      "name": "getCandidates",
      "outputs": [
        {
          "components": [
            {
              "internalType": "uint256",
              "name": "id",
              "type": "uint256"
            },
            {
              "internalType": "string",
              "name": "name",
              "type": "string"
            },
            {
              "internalType": "uint256",
              "name": "voteCount",
              "type": "uint256"
            }
          ],
          "internalType": "struct VotingSystem.Candidate[]",
          "name": "",
          "type": "tuple[]"
        }
      ],
      "stateMutability": "view",
      "type": "function",
      "constant": true
    }
  ],
  "bytecode": "0x608060405234801561001057600080fd5b506110ca806100206000396000f3fe608060405234801561001057600080fd5b506004361061007d5760003560e01c80635e6fef011161005b5780635e6fef0114610100578063997d2830146101335780639c98bcbb14610151578063b384abef1461016d5761007d565b8063349813b2146100825780633e39a7a51461009e5780634bd46448146100ce575b600080fd5b61009c60048036038101906100979190610a15565b610189565b005b6100b860048036038101906100b39190610a81565b61026a565b6040516100c59190610cde565b60405180910390f35b6100e860048036038101906100e39190610aaa565b61044b565b6040516100f793929190610d5b565b60405180910390f35b61011a60048036038101906101159190610a81565b610523565b60405161012a9493929190610d99565b60405180910390f35b61013b6105e8565b6040516101489190610d40565b60405180910390f35b61016b60048036038101906101669190610a81565b6105ee565b005b61018760048036038101906101829190610aaa565b610626565b005b60008081548092919061019b90610f96565b91905055506000600160008054815260200190815260200160002090506000548160000181905550828160010190805190602001906101db92919061084d565b5060018160050160006101000a81548160ff02191690831515021790555060005b825181101561026457610251600054848381518110610244577f4e487b7100000000000000000000000000000000000000000000000000000000600052603260045260246000fd5b60200260200101516107aa565b808061025c90610f96565b9150506101fc565b50505050565b606060006001600084815260200190815260200160002090506000816003015467ffffffffffffffff8111156102c9577f4e487b7100000000000000000000000000000000000000000000000000000000600052604160045260246000fd5b60405190808252806020026020018201604052801561030257816020015b6102ef6108d3565b8152602001906001900390816102e75790505b5090506000600190505b82600301548111610440578260020160008281526020019081526020016000206040518060600160405290816000820154815260200160018201805461035190610f64565b80601f016020809104026020016040519081016040528092919081815260200182805461037d90610f64565b80156103ca5780601f1061039f576101008083540402835291602001916103ca565b820191906000526020600020905b8154815290600101906020018083116103ad57829003601f168201915b50505050508152602001600282015481525050826001836103eb9190610ed8565b81518110610422577f4e487b7100000000000000000000000000000000000000000000000000000000600052603260045260246000fd5b6020026020010181905250808061043890610f96565b91505061030c565b508092505050919050565b600060606000806001600087815260200190815260200160002060020160008681526020019081526020016000209050806000015481600101826002015481805461049590610f64565b80601f01602080910402602001604051908101604052809291908181526020018280546104c190610f64565b801561050e5780601f106104e35761010080835404028352916020019161050e565b820191906000526020600020905b8154815290600101906020018083116104f157829003601f168201915b50505050509150935093509350509250925092565b600160205280600052604060002060009150905080600001549080600101805461054c90610f64565b80601f016020809104026020016040519081016040528092919081815260200182805461057890610f64565b80156105c55780601f1061059a576101008083540402835291602001916105c5565b820191906000526020600020905b8154815290600101906020018083116105a857829003601f168201915b5050505050908060030154908060050160009054906101000a900460ff16905084565b60005481565b600060016000838152602001908152602001600020905060008160050160006101000a81548160ff0219169083151502179055505050565b60006001600084815260200190815260200160002090508060050160009054906101000a900460ff1661068e576040517f08c379a000000000000000000000000000000000000000000000000000000000815260040161068590610d00565b60405180910390fd5b8060040160003373ffffffffffffffffffffffffffffffffffffffff1673ffffffffffffffffffffffffffffffffffffffff16815260200190815260200160002060009054906101000a900460ff161561071d576040517f08c379a000000000000000000000000000000000000000000000000000000000815260040161071490610d20565b60405180910390fd5b60018160040160003373ffffffffffffffffffffffffffffffffffffffff1673ffffffffffffffffffffffffffffffffffffffff16815260200190815260200160002060006101000a81548160ff02191690831515021790555080600201600083815260200190815260200160002060020160008154809291906107a090610f96565b9190505550505050565b60006001600084815260200190815260200160002090508060030160008154809291906107d690610f96565b919050555060405180606001604052808260030154815260200183815260200160008152508160020160008360030154815260200190815260200160002060008201518160000155602082015181600101908051906020019061083a92919061084d565b5060408201518160020155905050505050565b82805461085990610f64565b90600052602060002090601f01602090048101928261087b57600085556108c2565b82601f1061089457805160ff19168380011785556108c2565b828001600101855582156108c2579182015b828111156108c15782518255916020019190600101906108a6565b5b5090506108cf91906108f4565b5090565b60405180606001604052806000815260200160608152602001600081525090565b5b8082111561090d5760008160009055506001016108f5565b5090565b600061092461091f84610e16565b610de5565b9050808382526020820190508260005b85811015610964578135850161094a88826109d6565b845260208401935060208301925050600181019050610934565b5050509392505050565b600061098161097c84610e42565b610de5565b90508281526020810184848401111561099957600080fd5b6109a4848285610f22565b509392505050565b600082601f8301126109bd57600080fd5b81356109cd848260208601610911565b91505092915050565b600082601f8301126109e757600080fd5b81356109f784826020860161096e565b91505092915050565b600081359050610a0f8161107d565b92915050565b60008060408385031215610a2857600080fd5b600083013567ffffffffffffffff811115610a4257600080fd5b610a4e858286016109d6565b925050602083013567ffffffffffffffff811115610a6b57600080fd5b610a77858286016109ac565b9150509250929050565b600060208284031215610a9357600080fd5b6000610aa184828501610a00565b91505092915050565b60008060408385031215610abd57600080fd5b6000610acb85828601610a00565b9250506020610adc85828601610a00565b9150509250929050565b6000610af28383610c70565b905092915050565b6000610b0582610e82565b610b0f8185610ea5565b935083602082028501610b2185610e72565b8060005b85811015610b5d5784840389528151610b3e8582610ae6565b9450610b4983610e98565b925060208a01995050600181019050610b25565b50829750879550505050505092915050565b610b7881610f0c565b82525050565b6000610b8982610e8d565b610b938185610eb6565b9350610ba3818560208601610f31565b610bac8161106c565b840191505092915050565b6000610bc282610e8d565b610bcc8185610ec7565b9350610bdc818560208601610f31565b610be58161106c565b840191505092915050565b6000610bfd601683610ec7565b91507f456c656374696f6e206973206e6f7420616374697665000000000000000000006000830152602082019050919050565b6000610c3d601683610ec7565b91507f596f75206861766520616c726561647920766f746564000000000000000000006000830152602082019050919050565b6000606083016000830151610c886000860182610cc0565b5060208301518482036020860152610ca08282610b7e565b9150506040830151610cb56040860182610cc0565b508091505092915050565b610cc981610f18565b82525050565b610cd881610f18565b82525050565b60006020820190508181036000830152610cf88184610afa565b905092915050565b60006020820190508181036000830152610d1981610bf0565b9050919050565b60006020820190508181036000830152610d3981610c30565b9050919050565b6000602082019050610d556000830184610ccf565b92915050565b6000606082019050610d706000830186610ccf565b8181036020830152610d828185610bb7565b9050610d916040830184610ccf565b949350505050565b6000608082019050610dae6000830187610ccf565b8181036020830152610dc08186610bb7565b9050610dcf6040830185610ccf565b610ddc6060830184610b6f565b95945050505050565b6000604051905081810181811067ffffffffffffffff82111715610e0c57610e0b61103d565b5b8060405250919050565b600067ffffffffffffffff821115610e3157610e3061103d565b5b602082029050602081019050919050565b600067ffffffffffffffff821115610e5d57610e5c61103d565b5b601f19601f8301169050602081019050919050565b6000819050602082019050919050565b600081519050919050565b600081519050919050565b6000602082019050919050565b600082825260208201905092915050565b600082825260208201905092915050565b600082825260208201905092915050565b6000610ee382610f18565b9150610eee83610f18565b925082821015610f0157610f00610fdf565b5b828203905092915050565b60008115159050919050565b6000819050919050565b82818337600083830152505050565b60005b83811015610f4f578082015181840152602081019050610f34565b83811115610f5e576000848401525b50505050565b60006002820490506001821680610f7c57607f821691505b60208210811415610f9057610f8f61100e565b5b50919050565b6000610fa182610f18565b91507fffffffffffffffffffffffffffffffffffffffffffffffffffffffffffffffff821415610fd457610fd3610fdf565b5b600182019050919050565b7f4e487b7100000000000000000000000000000000000000000000000000000000600052601160045260246000fd5b7f4e487b7100000000000000000000000000000000000000000000000000000000600052602260045260246000fd5b7f4e487b7100000000000000000000000000000000000000000000000000000000600052604160045260246000fd5b6000601f19601f8301169050919050565b61108681610f18565b811461109157600080fd5b5056fea2646970667358221220addd8aa18d116ea1061f1783c2d232161098911dc6aa2727117349a09bce707664736f6c63430008000033",
  "immutableReferences": {},
  "source": "// SPDX-License-Identifier: MIT\r\npragma solidity ^0.8.0;\r\n\r\ncontract VotingSystem {\r\n    struct Candidate {\r\n        uint id;\r\n        string name;\r\n        uint voteCount;\r\n    }\r\n\r\n    struct Election {\r\n        uint id;\r\n        string name;\r\n        mapping(uint => Candidate) candidates;\r\n        uint candidateCount;\r\n        mapping(address => bool) voters;\r\n        bool active;\r\n    }\r\n\r\n    uint public electionCount;\r\n    mapping(uint => Election) public elections;\r\n\r\n    function createElection(string memory _name, string[] memory _candidates) public {\r\n        electionCount++;\r\n        Election storage election = elections[electionCount];\r\n        election.id = electionCount;\r\n        election.name = _name;\r\n        election.active = true;\r\n\r\n        for (uint i = 0; i < _candidates.length; i++) {\r\n            addCandidate(electionCount, _candidates[i]);\r\n        }\r\n    }\r\n\r\n    function addCandidate(uint _electionId, string memory _name) internal {\r\n        Election storage election = elections[_electionId];\r\n        election.candidateCount++;\r\n        election.candidates[election.candidateCount] = Candidate(election.candidateCount, _name, 0);\r\n    }\r\n\r\n    function vote(uint _electionId, uint _candidateId) public {\r\n        Election storage election = elections[_electionId];\r\n        require(election.active, \"Election is not active\");\r\n        require(!election.voters[msg.sender], \"You have already voted\");\r\n\r\n        election.voters[msg.sender] = true;\r\n        election.candidates[_candidateId].voteCount++;\r\n    }\r\n\r\n    function endElection(uint _electionId) public {\r\n        Election storage election = elections[_electionId];\r\n        election.active = false;\r\n    }\r\n\r\n    function getCandidate(uint _electionId, uint _candidateId) public view returns (uint, string memory, uint) {\r\n        Candidate storage candidate = elections[_electionId].candidates[_candidateId];\r\n        return (candidate.id, candidate.name, candidate.voteCount);\r\n    }\r\n\r\n    function getCandidates(uint _electionId) public view returns (Candidate[] memory) {\r\n        Election storage election = elections[_electionId];\r\n        Candidate[] memory candidates = new Candidate[](election.candidateCount);\r\n\r\n        for (uint i = 1; i <= election.candidateCount; i++) {\r\n            candidates[i - 1] = election.candidates[i];\r\n        }\r\n\r\n        return candidates;\r\n    }\r\n}\r\n",
  "sourcePath": "C:\\Users\\user\\OneDrive\\Desktop\\New folder\\decentralized_voting_system\\backend\\contracts\\VotingSystem.sol",
  "compiler": {
    "name": "solc",
    "version": "0.8.0+commit.c7dfd78e.Emscripten.clang"
  },
  "schemaVersion": "3.4.16",
  "updatedAt": "2024-08-01T14:04:56.781Z",
  "networkType": "ethereum",
  "devdoc": {
    "kind": "dev",
    "methods": {},
    "version": 1
  },
  "userdoc": {
    "kind": "user",
    "methods": {},
    "version": 1
  }
}